:020000023000CC
:10F800000D9472FC0D948EFC0D948EFC0D948EFC68
:10F810000D948EFC0D948EFC0D948EFC0D948EFC3C
:10F820000D948EFC0D948EFC0D948EFC0D948EFC2C
:10F830000D948EFC0D948EFC0D948EFC0D948EFC1C
:10F840000D948EFC0D948EFC0D948EFC0D948EFC0C
:10F850000D948EFC0D948EFC0D948EFC0D948EFCFC
:10F860000D948EFC0D948EFC0D948EFC0D948EFCEC
:10F870000D948EFC0D948EFC0D948EFC0D948EFCDC
:10F880000D948EFC0D948EFC0D948EFC0D948EFCCC
:10F890000D948EFC0D948EFC0D948EFC0D948EFCBC
:10F8A0000D948EFC0D948EFC0D948EFC0D948EFCAC
:10F8B0000D948EFC0D948EFC0D948EFC0D948EFC9C
:10F8C0000D948EFC0D948EFC0D948EFC0D948EFC8C
:10F8D0000D948EFC0D948EFC0D948EFC0D948EFC7C
:10F8E0000D948EFC11241FBECFEFD1E2DEBFCDBF41
:10F8F00001E00CBF22E0A0E0B2E001C01D92A23006
:10F90000B207E1F70F94ABFC0D9490FF01E20EBF3C
:10F910000FEF0DBF11241FBE0D94ABFC0D9400FC26
:10F920008093C6008091C00086FFFCCF8091C0000C
:10F9300080648093C00008959C0180E090E082176D
:10F94000930709F40895EFECF7E03197F1F700C061
:10F9500000000196F4CFCDB7DEB7C452D1400FB648
:10F96000F894DEBF0FBECDBF01E20EBF0FEF0DBF9B
:10F9700094B7F894A89514BE809160008861809334
:10F98000600010926000789493FF05C0E09100023F
:10F99000F091010219958091C00082608093C000AF
:10F9A00080E18093C40088E18093C100000080E082
:10F9B00090E040E050E0BA012091C00027FD24C053
:10F9C000892B71F000008091C0008D7F8093C00072
:10F9D00081E180935700E895EE27FF270994FFCF38
:10F9E00025E02A95F1F700004F5F5F4F6F4F7F4F83
:10F9F00021E0413E37E6530735E36307710508F41C
:10FA000020E0822F90E0D8CF892BE1F68091C600CC
:10FA100020E030E0CD5DDE4F19821882C352D14024
:10FA2000812C912C5401412C512C3201CE5DDE4FA2
:10FA30001882C252D140C12C2AC00197A040B040C8
:10FA400069F4ABBFFC0187919691019619F0EE27FE
:10FA5000FF27099481E092E1AAE7B0E04091C0005D
:10FA600047FFEBCF8091C60094E0D91609F45FC040
:10FA7000A5E0DA1690F4E2E0DE1609F43FC0F3E008
:10FA8000DF1609F449C0EE24E394DE1411F18B3142
:10FA900009F057C0DD24D39456C0B5E0FB2EDF102B
:10FAA0004EC0CD5DDE4F48815981C352D1404F5F7A
:10FAB0005F4FCD5DDE4FE881F981C352D140EC0F3D
:10FAC000FD1F8183C8262417350789F496E0D92EB7
:10FAD0000EC0C826CE5DDE4F8883C252D140CD5DB8
:10FAE000DE4F48815981C352D140A2E0DA2ECD5D6C
:10FAF000DE4F59834883C352D140ACCF282F30E02A
:10FB0000322F2227C826CD5DDE4F48815981C3524E
:10FB1000D140F3E0DF2EEBCF282BC826CD5DDE4FA2
:10FB200048815981C352D14074E0D72EE0CF8E3046
:10FB300041F4C82640E050E065E0D62ED8CFC81684
:10FB400021F08C2DD12CC82E85CF2981233109F4A9
:10FB50002CC1C8F4263009F419C158F4223089F0B8
:10FB6000233009F4D0C0213009F4B6C080EC8A8378
:10FB70001AC1213109F4DBC0223109F4FEC0203161
:10FB8000A9F7D12CD6C02A3109F4E6C008F03EC04E
:10FB9000263121F048F5243109F007C18A819B8183
:10FBA0009827892798278C010D5F1F4F1A822431CF
:10FBB00009F06AC1DE0111966BBEF2012791369100
:10FBC000FD0112962C93129713963C93139722E003
:10FBD000420E511C611C711C02971296009761F72E
:10FBE00034961082D12C3BC0283109F0BFCF8B81D5
:10FBF000803509F0BEC08C81883009F0B6C089E03C
:10FC0000E2E0F0E080935700E4919FC02B3109F4CB
:10FC100094C02D3109F0AACF9D81903349F48F8192
:10FC2000EEE1811599F0E1E0813081F4E8E90EC060
:10FC300089E0E0E0F0E0903531F0E0E0983531F433
:10FC400089E0E3E0F0E080935700E491EE831A82CC
:10FC50001B829C831D821F82D12C07E010E08BE168
:10FC60000F9490FCCE5DDE4F8881C252D1400F943C
:10FC700090FC812F0F9490FCCE5DDE4FC880C25265
:10FC8000D140C126802F0F9490FCC0268EE00F94A7
:10FC900090FC85E1C82622242394312C2C0E3D1E95
:10FCA000200E311E8E010F5F1F4F2016310609F006
:10FCB0001AC18C2D0F9490FCCE5DDE4FF881C2529C
:10FCC000D140FF5FCE5DDE4FF883C252D140D110EC
:10FCD00079CE20E030E0BECE1A8288E08B8381E4CA
:10FCE0008C8386E58D8382E58E8389E48F8383E52B
:10FCF000888780E589878FE58A8782E38B87D12C87
:10FD00000BE010E0ACCF8A81813959F0823959F08B
:10FD1000803959F080E08B831A82D12C03E010E007
:10FD20009ECF82E0F8CF8AE0F6CF8FE0F4CFDD24DB
:10FD3000D3941A8202E010E092CF8D81EEE181151A
:10FD400021F0E1E0813009F4E8E9EB831A821C82BA
:10FD5000D12C04E010E083CF1A8289E0E1E0F0E0EA
:10FD60008093570084918B83F2CF89E0E0E0F0E04C
:10FD700049CF89E0E3E0F0E045CF80EC8A83D12CE5
:10FD800002E010E0812C912C540169CF6A817B81C3
:10FD90008C819D810F947BFF2B013C01440C551CF1
:10FDA000661C771C1A82D12CC5CFCA80DB80DC246C
:10FDB000CD24DC24233109F041C0811420EF9206C8
:10FDC00023E0A206B10470F483E0F401A0925B008A
:10FDD00080935700E89507B600FCFDCF3FEF931ADC
:10FDE000A30AB30AD301C201BE01655F7F4F41E0A0
:10FDF000FB01208131816E5F7F4F0901FC01A093DF
:10FE00005B0040935700E89511240296A11DB11D97
:10FE1000E2E0CE1AD10861F725E0F20160925B00C2
:10FE200020935700E89507B600FCFDCF21E1209311
:10FE30005700E8951A822C013D01B5CFD301C201CC
:10FE4000B695A795979587951C017601E80EF91E42
:10FE50008E01055F1F4F2E143F0461F4C601A0E020
:10FE6000B0E0880F991FAA1FBB1F840D951DA61D0A
:10FE7000B71DE0CFF80161918F01C1010F9482FF9E
:10FE8000FFEF2F1A3F0AE7CFFE0131969F01280F9F
:10FE9000391FB301A20141BDC52ED62EE72EFF2486
:10FEA000C25EDE4FC882D982EA82FB82CE51D14047
:10FEB000C2BC4F5F5F4F6F4F7F4FF89AA0B5A283D0
:10FEC0003196E217F30739F7FE013396E80FF91F71
:10FED0000197A0E0B0E00196A11DB11D480E591E8A
:10FEE0006A1E7B1E7ECEF801F1908F018F2D0F943C
:10FEF00090FCCF24DACE69279627692778278727B1
:10FF000078270895262FF999FECF1FBA92BD81BD9B
:10FF100020BD0FB6F894FA9AF99A0FBE019608958B
:04FF2000F894FFCF83
:040000033000F800D1
:00000001FF
