:020000023000CC
:10F000000D9472F80D948EF80D948EF80D948EF880
:10F010000D948EF80D948EF80D948EF80D948EF854
:10F020000D948EF80D948EF80D948EF80D948EF844
:10F030000D948EF80D948EF80D948EF80D948EF834
:10F040000D948EF80D948EF80D948EF80D948EF824
:10F050000D948EF80D948EF80D948EF80D948EF814
:10F060000D948EF80D948EF80D948EF80D948EF804
:10F070000D948EF80D948EF80D948EF80D948EF8F4
:10F080000D948EF80D948EF80D948EF80D948EF8E4
:10F090000D948EF80D948EF80D948EF80D948EF8D4
:10F0A0000D948EF80D948EF80D948EF80D948EF8C4
:10F0B0000D948EF80D948EF80D948EF80D948EF8B4
:10F0C0000D948EF80D948EF80D948EF80D948EF8A4
:10F0D0000D948EF80D948EF80D948EF80D948EF894
:10F0E0000D948EF811241FBECFEFD1E2DEBFCDBF4D
:10F0F00001E00CBF22E0A0E0B2E001C01D92A2300E
:10F10000B207E1F70F94ABF80D9431FC01E20EBFAA
:10F110000FEF0DBF11241FBE0D94ABF80D9400F836
:10F120008093C6008091C00086FFFCCF8091C00014
:10F1300080648093C00008959C0180E090E0821775
:10F14000930709F40895EFECF7E03197F1F700C069
:10F1500000000196F4CFCDB7DEB7C852D1400FB64C
:10F16000F894DEBF0FBECDBF01E20EBF0FEF0DBFA3
:10F1700011B812B817B818B880EF8AB98CE78BB9F4
:10F1800081E08DB980E48EB910BA11BA13BA84E067
:10F1900084BB109201011092020180E88093040167
:10F1A00010920501109207011092080110920A01B5
:10F1B00010920B0194B7F894A89514BE809160004A
:10F1C00088618093600010926000789493FF05C07E
:10F1D000E0910002F091010219958BB18F7C8BB9FF
:10F1E0008091C00082608093C00080E18093C40061
:10F1F00088E18093C1000000E12CF12C812C912C3E
:10F200005401A7EC4A2EABE15A2E612C712CB0E2CE
:10F21000DB2E8091C00087FD34C0EF2881F05F9A1B
:10F220005D9800008091C0008D7F8093C00081E1D7
:10F2300080935700E895EE27FF270994FFCF25E03C
:10F240002A95F1F700003FEF831A930AA30AB30A45
:10F2500081E041E284164EE49406A104B10408F46E
:10F2600080E0E82EF12CC501B401A30192010F94B6
:10F27000FAFB672B682B692B61F68BB18D258BB957
:10F28000C8CFEF2861F65F988091C60020E030E09B
:10F29000812C912CCE5DDE4F188219821A821B823E
:10F2A000C252D140412C512C3201CA5DDE4F18822E
:10F2B000C652D140A12CDE011196C25EDE4FB98349
:10F2C000A883CE51D140C25EDE4FB881CE51D1402D
:10F2D000C95DDE4FB883C752D140C15EDE4FE881C1
:10F2E000CF51D140C85DDE4FE883C852D1408B3149
:10F2F00009F060C0BB24B3945FC00197A040B04048
:10F3000069F4ABBFFC0187919691019619F0EE2745
:10F31000FF27099481E092E1AAE7B0E04091C000A4
:10F3200047FFEBCF8091C60044E0B416C9F155E029
:10F33000B516A0F492E0B91621F1A3E0BA1651F186
:10F34000B1E0BB12D4CFA826CA5DDE4F8883C65277
:10F35000D1401401F2E0BF2E4101DCCFE5E0BE1246
:10F3600027C01401FFEF2F1A3F0AFE013196E80D66
:10F37000F91D8083A8262215330571F746E0B42EC7
:10F38000EBCF282F30E0322F2227A8261401E3E00C
:10F39000BE2EE2CF282BA826140164E0B62EDCCFC7
:10F3A0008E3041F4A826212C312C55E0B52ED4CF37
:10F3B000A81621F08A2DB12CA82EACCF298123319B
:10F3C00009F44EC1C8F4263009F439C158F422308A
:10F3D00089F0233009F4EBC0213009F4D1C080EC6E
:10F3E0008A833AC1213109F4F6C0223109F419C1E6
:10F3F0002031A9F7B12CF1C02A3109F401C108F07C
:10F400003EC0263121F048F5243109F029C18A8116
:10F410009B819827892798278C010D5F1F4F1A829F
:10F42000243109F0A2C1DE0111966BBEF2012791D1
:10F430003691FD0112962C93129713963C931397D5
:10F4400022E0420E511C611C711C0297129600971B
:10F4500061F734961082B12C3BC0283109F0BFCF40
:10F460008B81803509F0D9C08C81883009F0D1C0FA
:10F4700089E0E2E0F0E080935700E491BAC02B31DC
:10F4800009F4AFC02D3109F0AACF9D81903349F422
:10F490008F81EEE1811599F0E1E0813081F4E8E9B6
:10F4A0000EC089E0E0E0F0E0903531F0E0E0983522
:10F4B00031F489E0E3E0F0E080935700E491EE83DB
:10F4C0001A821B829C831D821F82B12C07E010E0F0
:10F4D0008BE10F9490F8CA5DDE4F8881C652D1400F
:10F4E0000F9490F8812F0F9490F8802F0F9490F83C
:10F4F000CA5DDE4FA880C652D140A126A0268EE06C
:10F500000F9490F835E1A326EE24E394F12CEC0E51
:10F51000FD1EE00EF11EC95DDE4F4881C752D1408D
:10F52000C05EDE4F4883C052D140C85DDE4F588177
:10F53000C852D140CF5DDE4F5883C152D140C05E2A
:10F54000DE4F28813981C052D140E216F30609F01E
:10F5500033C18A2D0F9490F8CA5DDE4F3881C652B0
:10F56000D1403F5FCA5DDE4F3883C652D1408BB178
:10F5700040E284278BB9B11052CE20E030E0CACEF1
:10F580001A8288E08B8381E48C8386E58D8382E513
:10F590008E8389E48F8383E5888780E589878FE57B
:10F5A0008A8782E38B87B12C0BE010E091CF8A81B0
:10F5B000813959F0823959F0803959F080E08B83D4
:10F5C0001A82B12C03E010E083CF82E0F8CF8AE00A
:10F5D000F6CF8FE0F4CFBB24B3941A8202E010E0A0
:10F5E00077CF8D81EEE1811521F0E1E0813009F4E2
:10F5F000E8E9EB831A821C82B12C04E010E068CFAA
:10F600001A8289E0E1E0F0E08093570084918B83D7
:10F61000F2CF89E0E0E0F0E02ECF89E0E3E0F0E037
:10F620002ACF80EC8A83B12C02E010E0CE5DDE4F61
:10F63000188219821A821B82C252D14049CF6A8134
:10F640007B818C819D810F941CFC2B013C01440C1F
:10F65000551C661C771C1A82B12C02E010E038CFD2
:10F660000A811B81102701271027233109F056C07A
:10F67000CE5DDE4F288139814A815B81C252D14003
:10F68000211580EE380783E048075105E8F483E050
:10F69000F90140935B0080935700E89507B600FCA2
:10F6A000FDCFCE5DDE4F288139814A815B81C25218
:10F6B000D1403F5F4F4F5F4FCE5DDE4F2883398390
:10F6C0004A835B83C252D140B301A201CE010B96A3
:10F6D000A1E0FC012081318102960901FA016093C9
:10F6E0005B00A0935700E89511244E5F5F4F6F4F6A
:10F6F0007F4F0250104069F785E0F20160925B0095
:10F7000080935700E89507B600FCFDCF81E1809318
:10F710005700E8951A822A013B019ECF73016201CE
:10F72000F694E794D794C7945601C00ED11E7E017B
:10F730003BE0E30EF11CAC14BD0469F420E030E0C2
:10F74000000F111F221F331FB901A801440D551DC1
:10F75000661D771DDFCFD7016D917D01C5010F9427
:10F7600023FCBFEFAB1ABB0AE6CFFE0131969F0127
:10F77000280F391FB301A20141BDC52ED62EE72E99
:10F78000FF24C2BC4F5F5F4F6F4F7F4FF89AA0B509
:10F79000A2833196E217F30779F7FE013396E80F5B
:10F7A000F91F0197A0E0B0E00196A11DB11D480E20
:10F7B000591E6A1E7B1E4ECEC05EDE4FC880D980A9
:10F7C000C052D140D601ED916D01C05EDE4FE8839D
:10F7D000C052D1408E2F0F9490F8C05EDE4FF8815A
:10F7E000C052D140AF26C05EDE4FD982C882C0521F
:10F7F000D140A5CEA1E21A2EAA1BBB1BFD010DC054
:10F80000AA1FBB1FEE1FFF1FA217B307E407F507D0
:10F8100020F0A21BB30BE40BF50B661F771F881FAC
:10F82000991F1A9469F760957095809590959B0142
:10F83000AC01BD01CF010895692796276927782774
:10F84000872778270895262FF999FECF1FBA92BDF2
:10F8500081BD20BD0FB6F894FA9AF99A0FBE0196B1
:06F860000895F894FFCFAB
:040000033000F000D9
:00000001FF
