:020000023000CC
:10E000000D948AF10D94A6F10D94A6F10D94A6F14C
:10E010000D94A6F10D94A6F10D94A6F10D94A6F120
:10E020000D94A6F10D94A6F10D94A6F10D94A6F110
:10E030000D94A6F10D94A6F10D94A6F10D94A6F100
:10E040000D94A6F10D94A6F10D94A6F10D94A6F1F0
:10E050000D94A6F10D94A6F10D94A6F10D94A6F1E0
:10E060000D94A6F10D94A6F10D94A6F10D94A6F1D0
:10E070000D94A6F10D94A6F10D94A6F10D94A6F1C0
:10E080000D94A6F10D94A6F10D94A6F10D94A6F1B0
:10E090000D94A6F10D94A6F10D94A6F10D94A6F1A0
:10E0A0000D94A6F10D94A6F10D94A6F10D94A6F190
:10E0B0000D94A6F10D94A6F10D94A6F10D94A6F180
:10E0C0000D94A6F10D94A6F10D94A6F10D94A6F170
:10E0D0000D94A6F10D94A6F10D94A6F10D94A6F160
:10E0E0000D94A6F12A00593D506F727420626C693C
:10E0F0006E6B00563D73686F7720696E746572723F
:10E1000075707420566563746F727300523D447568
:10E110006D702052414D00513D51756974004C3D68
:10E120004C69737420492F4F20506F7274730048EC
:10E130003D48656C7000463D44756D7020464C410D
:10E14000534800453D44756D7020454550524F4D34
:10E1500000423D426C696E6B204C454400403D4599
:10E160004550524F4D2074657374003F3D435055E8
:10E1700020737461747300303D5A65726F2061645E
:10E18000647200504F5254004545206572722063FE
:10E190006E743D0052656164696E672045450057A5
:10E1A00072697474696E672045450020004D75736F
:10E1B000742062652061206C657474657200506F14
:10E1C0007274206E6F7420737570706F72746564F2
:10E1D000005768617420706F72743A006A6D702025
:10E1E00000726A6D702020006E6F20766563746F18
:10E1F00072005623202020414444522020206F707A
:10E2000020636F64652020202020696E737472750E
:10E210006374696F6E2061646472202020496E749B
:10E220006572727570740031342E322E3000322EC9
:10E23000312E30004F6374203133203230323500BC
:10E240004C6F636B20667573652020203D20004570
:10E2500078742066757365202020203D2000486971
:10E26000676820667573652020203D20004C6F771D
:10E270002066757365202020203D200043505520E6
:10E2800049442020202020203D20004743432056A1
:10E29000657273696F6E203D2000415652204C69B3
:10E2A0006243205665723D20005F5F4156525F41D8
:10E2B0005243485F5F3D20004350552054797065BC
:10E2C000202020203D2000436F6D70696C65642024
:10E2D0006F6E203D20004875683F00426F6F746C80
:10E2E0006F616465723E0041726475696E6F20658E
:10E2F00078706C6F7265722073746B353030563283
:10E30000206279204D4C530041546D656761323570
:10E310003630000011241FBECFEFD1E2DEBFCDBFEB
:10E3200001E00CBF22E0A0E0B2E001C01D92AE30DF
:10E33000B207E1F70F94DCF20D942BFC01E20EBF63
:10E340000FEF0DBF11241FBE0D94DCF20D9400F0F1
:10E350008093C6008091C00086FFFCCF8091C000F2
:10E3600080648093C00008958091C00087FFFCCF37
:10E370008091C60008959C0180E090E08217930789
:10E3800009F40895EFECF7E03197F1F700C00000D1
:10E390000196F4CFCF93DF93EC01C60FD11DCE01D0
:10E3A000A0E0B0E0ABBFFC018791811521F0219680
:10E3B0000F94A8F1F4CFDF91CF9108958DE00F94E1
:10E3C000A8F18AE00D94A8F1CF93C82F60E083E80C
:10E3D00091EE0F94CAF18C2F0F94A8F1CF910D9468
:10E3E000DEF10F94CAF10D94DEF1CF93DF93EC01CF
:10E3F0008881811521F021960F94A8F1F9CFDF9142
:10E40000CF910895CF93C82F982F92959F7080E356
:10E41000890F8A3310F087E3890F0F94A8F1CF702A
:10E4200080E38C0F8A3310F087E38C0FCF910D942B
:10E43000A8F12F923F924F925F926F927F928F92AC
:10E440009F92AF92BF92CF92DF92EF92FF920F9383
:10E450001F93CF93DF93CDB7DEB762970FB6F894D3
:10E46000DEBF0FBECDBF982E6A017B0180E1882EF2
:10E4700081E0C816D104E806F10418F08E2D0F943F
:10E4800002F28D2D0F9402F20C2D8C2D0F9402F2BE
:10E4900080E20F94A8F18DE20F94A8F180E20F942E
:10E4A000A8F11982FE0131965F01260137011F0193
:10E4B000005FF1E09F1609F443C082E0981609F46A
:10E4C00044C06BBEF2011791812F0F9402F280E2DB
:10E4D0000F94A8F180EE810F8F3508F01EE2F50150
:10E4E00011935F01FFEF4F1A5F0A6F0A7F0A041151
:10E4F000E0CF80E1C80ED11CE11CF11C198AC101DA
:10E500000F94F5F10F94DEF18A9409F0B1CF629681
:10E510000FB6F894DEBF0FBECDBFDF91CF911F9134
:10E520000F91FF90EF90DF90CF90BF90AF909F90B2
:10E530008F907F906F905F904F903F902F900895B5
:10E54000C2010F9415FC182FBFCFF2011081BCCF70
:10E550000F931F93CF93DF93EC018B0185369105C9
:10E560001CF4633071054CF0CE0164E670E00F944A
:10E57000C4FB80E3860F0F94A8F1CB30D1051CF4C7
:10E58000023011056CF0CE0164E670E00F94C4FB1C
:10E590006AE070E00F94C4FB80E3860F0F94A8F14B
:10E5A000CE016AE070E00F94C4FB805DDF91CF91F3
:10E5B0001F910F910D94A8F1CDB7DEB7CB53D14089
:10E5C0000FB6F894DEBF0FBECDBF01E20EBF0FEF56
:10E5D0000DBF579A94B7F894A89514BE8091600027
:10E5E00088618093600010926000789493FF05C06A
:10E5F000E0910C02F0910D021995279A2F9A8091C3
:10E60000C00082608093C00080E18093C40088E1F4
:10E610008093C100000000E010E0C12CD12C7601F5
:10E62000B7EC8B2EBBE19B2EA12CB12C8091C000AE
:10E6300087FD3AC0012BA9F05F9A27982F9884E6AE
:10E6400090E00F94BBF100008091C0008D7F80931B
:10E65000C00081E180935700E895EE27FF270994D9
:10E66000FFCF25E02A95F1F700003FEFC31AD30A48
:10E67000E30AF30A81E041E2C4164EE4D406E10461
:10E68000F10408F480E0082F10E0C701B601A501ED
:10E6900094010F94D8FB672B682B692B09F0C6CF28
:10E6A00085B1805885B9C2CF012B09F0C5CF5F98DD
:10E6B0008091C600C25DDE4F19821882CE52D140D1
:10E6C000212C312C20E030E0C75DDE4F198218820A
:10E6D000C952D140CC5DDE4F188219821A821B824A
:10E6E000C452D140412C512C3201C85DDE4F1882FA
:10E6F000C852D140D12C912CBE016F5F7F4FC25EBA
:10E70000DE4F79836883CE51D140C25EDE4FC88030
:10E71000CE51D140C65CDE4FC882CA53D140C15EE3
:10E72000DE4FE880CF51D140C55CDE4FE882CB534D
:10E73000D140C25DDE4F68817981CE52D1406F5F9A
:10E740007F4FC25DDE4F79836883CE52D1408132E4
:10E7500009F068C56A30710510F00D9490FB7FEFE9
:10E76000271A370A93E02916310411F00D94AAFBF9
:10E77000A5E02A2E312C09E110E081E20F94A8F1E6
:10E7800001501040D1F70F94DEF1A1E02A1A3108B0
:10E7900091F7109208021092090210920A02109248
:10E7A0000B021092040210920502109206021092BF
:10E7B00007021092000210920102109202021092BF
:10E7C000030260E087EE92EE0F94F1F141C10197F0
:10E7D000A040B04069F4ABBFFC01879196910196CF
:10E7E00019F0EE27FF27099481E092E1AAE7B0E053
:10E7F0004091C00047FFEBCF8091C6009ACF1534FF
:10E8000009F4DEC1163409F048C162E086E391EEF6
:10E810000F94F1F1409104025091050260910602BB
:10E820007091070280E00F9419F280910402909198
:10E830000502A0910602B09107029F5FAF4FBF4F44
:10E840008093040290930502A0930602B0930702FE
:10E85000FFC0123509F446C220F51C3409F41BC26E
:10E86000113509F01AC162E087E191EE0F94F1F1E0
:10E87000992493942981243109F4F3C608F05DC5E5
:10E88000263009F4BAC608F048C5223009F451C54B
:10E89000233009F45CC6213009F443C680EC8A8336
:10E8A00049C5163509F442C2193509F0F6C062E0CF
:10E8B00086EE90EE0F94F1F160E081ED91EE0F9411
:10E8C000CAF10F94B4F1182F1F75812F0F94A8F17E
:10E8D0000F94DEF18FEB810F8A3108F09FC416345C
:10E8E00009F436C408F0D7C3133409F409C408F096
:10E8F000C7C3113409F0F4C38FEF81B98091C00010
:10E9000087FFE6C312B84EC162E087E791EE0F942D
:10E91000F1F1109204021092050210920602109278
:10E920000702109208021092090210920A02109235
:10E930000B02109200021092010210920202109239
:10E94000030286C062E08BE691EE0F94F1F160E085
:10E9500087EE92EE0F94F1F160E087EC92EE0F9467
:10E96000CAF160E084E392EE0F94F1F160E088EB8D
:10E9700092EE0F94CAF160E088E093EE0F94F1F10B
:10E9800060E089EA92EE0F94CAF186E30F94A8F151
:10E990000F94DEF160E08BE892EE0F94CAF160E034
:10E9A00087E292EE0F94F1F160E08AE992EE0F9423
:10E9B000CAF160E08EE292EE0F94F1F160E08CE734
:10E9C00092EE0F94CAF18EE10F9402F288E90F944F
:10E9D00002F281E00F9402F20F94DEF160E08DE626
:10E9E00092EE0F94CAF1F9E0CF2EE0E0F0E0C09291
:10E9F000570084910F9402F20F94DEF160E08EE5EF
:10EA000092EE0F94CAF1E3E0F0E0C09257008491D7
:10EA10000F9402F20F94DEF160E08FE492EE0F9417
:10EA2000CAF1E2E0F0E0C092570084910F9402F244
:10EA30000F94DEF160E080E492EE0F94CAF1E1E021
:10EA4000F0E0C092570084910F9402F20F94DEF12F
:10EA500060E08BED92EE0F94CAF10F94B4F1182F91
:10EA6000803608F01F751032C0F0812F0F94A8F186
:10EA700080E20F94A8F1183409F4CDC008F0E9CE73
:10EA8000123409F484C008F0BACE1F3309F45ACF07
:10EA9000103439F0103309F437CF60E086ED92EE90
:10EAA00093CE62E08DE591EE0F94F1F160E08FE995
:10EAB00091EE0F94F1F10F94DEF100E010E0C80147
:10EAC00089519D41A0E0B0E0ABBFFC01F790FAE2B4
:10EAD000FF1621F0011522E0120789F50F94DEF1EF
:10EAE0000F94DEF160E084E991EE0F94F1F10F9460
:10EAF000DEF1E12CF12C00E010E0C80189519D41CC
:10EB0000A0E0B0E0ABBFFC01D7904AE2D41621F000
:10EB1000011552E0150729F50F94DEF10F94DEF18F
:10EB200060E088E891EE0F94CAF161E070E0C701FF
:10EB30000F94A8F20F94DEF10F94DEF1FACE6F2D50
:10EB4000C8010F941DFCF11008C060E08BEA91EE43
:10EB50000F94CAF10F5F1F4FB2CF8F2D0F94A8F102
:10EB6000F9CFC8010F9415FCC82E81110DC060E0CB
:10EB70008BEA91EE0F94CAF1CD1419F03FEFE31A2E
:10EB8000F30A0F5F1F4FB9CF0F94A8F1F5CF62E0E2
:10EB900081E591EE0F94F1F1279A2F9A8091C000B0
:10EBA00087FF03C00F94B4F153CF2F9884E690E011
:10EBB0000F94BBF12F9A84E690E00F94BBF1EECF57
:10EBC00062E083E491EE0F94F1F1409100025091E4
:10EBD0000102609102027091030281E00F9419F228
:10EBE0008091000290910102A0910202B091030273
:10EBF0009F5FAF4FBF4F811560E19607A105B1053B
:10EC000008F097CE8093000290930102A093020235
:10EC1000B09303021DCF62E08FE291EE0F94F1F109
:10EC200060E087E791EE0F94F1F160E08BE691EE02
:10EC30000F94F1F160E08DE591EE0F94F1F160E059
:10EC400081E591EE0F94F1F160E083E491EE0F9491
:10EC5000F1F160E086E391EE0F94F1F160E08FE274
:10EC600091EE0F94F1F160E08EE191EE0F94F1F1ED
:10EC700060E087E191EE0F94F1F160E08CE091EEBD
:10EC80000F94F1F160E083EF90EE0F94F1F160E00A
:10EC900086EE90EE99CD62E08EE191EE0F94F1F167
:10ECA00081E40F94E4F182E40F94E4F183E40F949F
:10ECB000E4F184E40F94E4F185E40F94E4F186E454
:10ECC0000F94E4F187E40F94E4F188E40F94E4F105
:10ECD0008AE40F94E4F18BE40F94E4F18CE40F9454
:10ECE000E4F1B6CE62E08CE091EE0F94F1F1409148
:10ECF00008025091090260910A0270910B0282E0B1
:10ED00000F9419F28091080290910902A0910A02D1
:10ED1000B0910B029F5FAF4FBF4F8093080290935B
:10ED20000902A0930A02B0930B0292CE62E083EF35
:10ED300090EE0F94F1F160E088E093EE0F94F1F122
:10ED400060E082EF91EE0F94F1F100E010E0C05E20
:10ED5000DE4F188219821A821B82C052D140C05ED7
:10ED6000DE4FC880D980EA80FB80C052D140F69443
:10ED7000E794D794C794C05DDE4FC882D982EA82F7
:10ED8000FB82C053D1400F5F1F4F62E070E0C801AB
:10ED90000F94A8F280E20F94A8F18DE20F94A8F1ED
:10EDA00080E20F94A8F180E00F9402F2C05DDE4F84
:10EDB0008881C053D1400F9402F280E20F94A8F1F1
:10EDC0008DE30F94A8F180E20F94A8F1C05EDE4FAE
:10EDD000C880D980EA80FB80C052D140EBBEF601EA
:10EDE000D790C85CDE4FD882C853D1408D2C912C6F
:10EDF000A12CB12CC05EDE4F88819981AA81BB8194
:10EE0000C052D1400196A11DB11DABBFFC0187913D
:10EE1000C82ED12CE12CF12CCC5CDE4FC882D982DB
:10EE2000EA82FB82C453D140C05EDE4F48815981E3
:10EE30006A817B81C052D1404E5F5F4F6F4F7F4FE1
:10EE40006BBFFA01D790C75CDE4FD882C953D1405F
:10EE5000C05EDE4F488159816A817B81C052D140BA
:10EE60004D5F5F4F6F4F7F4F6BBFFA01E790C35D00
:10EE7000DE4FE882CD52D140C05EDE4F288139811D
:10EE80004A815B81C052D1402C5F3F4F4F4F5F4F53
:10EE9000C05EDE4F288339834A835B83C052D140F2
:10EEA000CC5CDE4F488159816A817B81C453D1405B
:10EEB000CC24D42EE52EF62EC80CD91CEA1CFB1C43
:10EEC0000F9402F280E20F94A8F1C85CDE4F8881B3
:10EED000C853D1400F9402F280E20F94A8F1C35DB1
:10EEE000DE4F8881CD52D1400F9402F280E20F9420
:10EEF000A8F1C75CDE4F8881C953D1400F9402F25C
:10EF000080E20F94A8F15FEFC516D506E104F10485
:10EF100061F460E088EE91EE0F94CAF10F94DEF197
:10EF20000933110509F01BCF93CDD701C6018827FE
:10EF3000907CAA27BB278115904CA105B10579F5D6
:10EF40007FE3D722EE24FF24C05DDE4F88809980C6
:10EF5000AA80BB80C053D1408C0C9D1CAE1CBF1C32
:10EF6000880C991CAA1CBB1C60E081EE91EE0F94EA
:10EF7000CAF18D2D0F9402F28C2D0F9402F280E2D3
:10EF80000F94A8F18EE30F94A8F180E00F9402F2A1
:10EF9000892D0F9402F2882D0F9402F2BFCF8EE0DC
:10EFA000C822E894D0F8EE24FF249CE0C91694E926
:10EFB000D906E104F10409F0B1CF80FA44275527BE
:10EFC000BA0160F981E1880C991CAA1CBB1C8A95C6
:10EFD000D1F788249924A0EEAA22A1E0BA22842A9B
:10EFE000952AA62AB72AC35DDE4FC880CD52D140EC
:10EFF0008C2D90E0A0E0B0E0BA2FA92F982F8827A1
:10F00000C75CDE4FD880C953D1408D0D911DA11D25
:10F01000B11DCC5CDE4FC880D980EA80FB80C45330
:10F02000D140C0FA44275527BA0165F9840F951FCE
:10F03000A61FB71F880E991EAA1EBB1E750164016C
:10F04000CC0CDD1CEE1CFF1C60E08CED91EE0F94EF
:10F05000CAF18A2D0F9402F2892D0F9402F2882DA5
:10F060000F9402F280E20F94A8F18EE30F94A8F1BE
:10F070008E2D0F9402F28D2D0F9402F28C2D8CCFD9
:10F08000143409F055C08FEF8AB98091C00087FF12
:10F0900047C01BB887CD1A3409F48EC050F417341A
:10F0A00009F466C0183409F473C060E08EEB91EE89
:10F0B0008BCB1B3409F494C01C34B9F78FEF8093C9
:10F0C0000A018091C00087FF9FC010920B016ACD9A
:10F0D00082B1809582B988EC90E00F94BBF10ECCA0
:10F0E0008FEF84B98091C00087FF02C015B85ACD58
:10F0F00085B1809585B988EC90E00F94BBF1F2CF93
:10F100008FEF87B98091C00087FF02C018B84ACD41
:10F1100088B1809588B988EC90E00F94BBF1F2CF6C
:10F120008BB180958BB988EC90E00F94BBF1ADCF9B
:10F130008FEF8DB98091C00087FF02C01EB832CD1D
:10F140008EB180958EB988EC90E00F94BBF1F2CF30
:10F150008FEF80BB8091C00087FF02C011BA22CD23
:10F1600081B3809581BB88EC90E00F94BBF1F2CF26
:10F170008FEF83BB8091C00087FF02C014BA12CD0D
:10F1800084B3809584BB88EC90E00F94BBF1F2CF00
:10F190008FEF809301018091C00087FF03C0109220
:10F1A000020100CD8091020180958093020188ECDC
:10F1B00090E00F94BBF1EFCF8FEF8093040180912B
:10F1C000C00087FF03C010920501ECCC80910501BF
:10F1D00080958093050188EC90E00F94BBF1EFCF10
:10F1E0008FEF809307018091C00087FF03C01092CA
:10F1F0000801D8CC8091080180958093080188ECA3
:10F2000090E00F94BBF1EFCF80910B01809580933C
:10F210000B0188EC90E00F94BBF153CF60E08DEAD6
:10F2200091EED2CA14E0E12E9E1409F455C0B5E067
:10F23000FB2E9F1488F442E09416E9F153E09516F2
:10F2400009F443C061E0961659F1212C312C8B3121
:10F2500009F455C0912CC8CA75E0212C312C9716A1
:10F2600009F049C0C75DDE4F48815981C952D1407C
:10F270004F5F5F4FFE013196C75DDE4FE880F9803A
:10F28000C952D140EE0DFF1D8083D8264217530787
:10F29000D9F1C75DDE4F59834883C952D14028C098
:10F2A000212C312CD826C85DDE4F8883C852D1402E
:10F2B000A2E09A2E99CA212C312C282F30E0322F2F
:10F2C0002227D826F3E09F2E8FCA212C312C282B01
:10F2D000D82674E0972E88CA8E3009F033C2D8261B
:10F2E000212C312CC75DDE4F19821882C952D140C2
:10F2F00065E0962E79CAD812ADCF912CBBCA5BE1DE
:10F30000D52E9924939470CAC75DDE4F3983288324
:10F31000C952D14046E0942E67CA223109F460C137
:10F320002331C9F0203129F0213109F0B7CA9924DD
:10F3300093941A8202E010E09FC0293109F43DC184
:10F3400008F067C0263109F48CC1283109F420C1C6
:10F35000253109F0A3CA0A811B8110270127102734
:10F36000233109F057C1CC5DDE4FC880D980EA80D7
:10F37000FB80C452D140C11420ECD20623E0E20647
:10F38000F104E8F483E0F601E0925B00809357001B
:10F39000E89507B600FCFDCFCC5DDE4F4881598172
:10F3A0006A817B81C452D1405F5F6F4F7F4FCC5DDC
:10F3B000DE4F488359836A837B83C452D140B301B3
:10F3C000A201CE010B96A1E0FC01208131810296C1
:10F3D0000901FA0160935B00A0935700E89511249E
:10F3E0004E5F5F4F6F4F7F4F0250104069F785E0CF
:10F3F000F20160925B0080935700E89507B600FC2D
:10F40000FDCF81E180935700E8951A822A013B01E4
:10F4100091CF2B3109F4AEC02D3161F02A3109F0C2
:10F420003DCA1A8289E0E1E0F0E0809357008491C0
:10F430008B83AAC09D81903349F48F81EEE18115C1
:10F4400099F0E1E0813081F4E8E90EC089E0E0E084
:10F45000F0E0903531F0E0E0983531F489E0E3E018
:10F46000F0E080935700E491EE831A821B829C8324
:10F470001D821F8207E010E08BE10F94A8F1C85DA8
:10F48000DE4F8881C852D1400F94A8F1812F0F948C
:10F49000A8F1C85DDE4FD880C852D140D126802F58
:10F4A0000F94A8F1D0268EE00F94A8F135E1D32671
:10F4B000AE014F5F5F4F040F151FC65CDE4FC88063
:10F4C000CA53D140C55DDE4FC882CB52D140C55C26
:10F4D000DE4FE880CB53D140C45DDE4FE882CC5292
:10F4E000D140C55DDE4FE880F980CB52D1400E158A
:10F4F0001F0509F001C18D2D0F94A8F1C85DDE4FE5
:10F500002881C852D1402F5FC85DDE4F2883C85282
:10F51000D14085B1805885B991108EC820E030E087
:10F5200063C91A8288E08B8381E48C8386E58D83AE
:10F5300082E58E8389E48F8383E5888780E58987E8
:10F540008FE58A8782E38B870BE010E095CF8A8175
:10F55000813951F0823951F0803951F080E08B834C
:10F560001A8203E010E088CF82E0F9CF8AE0F7CF7B
:10F570008FE0F5CF8D81EEE1811521F0E1E0813062
:10F5800009F4E8E9EB831A821C8204E010E074CFEE
:10F590008B81803571F48C81883039F489E0E2E028
:10F5A000F0E080935700E491EDCF89E0E0E0F0E0F7
:10F5B000F8CF89E0E3E0F0E0F4CF8D81982F9095CB
:10F5C0009C739D83836C99E0E1E0F0E0082E9093BA
:10F5D0005700E89507B600FCFDCF1A821B82C1CF09
:10F5E00080EC8A8302E010E0CC5DDE4F1882198245
:10F5F0001A821B82C452D1403FCF6A817B818C81A9
:10F600009D810F94FAFB2B013C01440C551C661C98
:10F61000771C8FCE73016201F694E794D794C79458
:10F620005601C00ED11E7E015BE0E50EF11CAC144C
:10F63000BD0469F420E030E0000F111F221F331FCA
:10F64000B901A801440D551D661D771DDECED701F9
:10F650006D917D01C5010F941DFCBFEFAB1ABB0A74
:10F66000E6CF8A819B819827892798278C010D5F97
:10F670001F4F1A822431C9F4DE0111966BBEF201CC
:10F6800027913691FD0112962C93129713963C9375
:10F69000139722E0420E511C611C711C02971296B6
:10F6A000009761F734961082E7CEFE0131969F01F4
:10F6B000280F391FB301A20141BDC52ED62EE72E5A
:10F6C000FF24C2BC4F5F5F4F6F4F7F4FF89AA0B5CA
:10F6D000A28331962E173F0779F7FE013396E80F84
:10F6E000F91F0197A0E0B0E00196A11DB11D480EE1
:10F6F000591E6A1E7B1ED7CFC55DDE4FE880F9809C
:10F70000CB52D140D701CD907D018C2D0F94A8F123
:10F71000DC24C55DDE4FF982E882CB52D140E1CED8
:10F7200044E0941679F055E0951678F462E0961668
:10F7300009F4C1CD73E0971609F4C7CD91E099168D
:10F7400009F4AECD212C312C85CDA5E0212C312C16
:10F750009A1686CDB4E09B1609F47CCDE5E09E16A2
:10F7600078F4F2E09F1609F4A8CD43E0C42E9C146F
:10F7700009F4ADCDEE24E3949E1409F493CD6ACD43
:10F7800095E0F92E9F146CCD97FB072E16F400948C
:10F7900007D077FD09D00F9401FC07FC05D03EF49B
:10F7A000909581959F4F0895709561957F4F08952D
:10F7B000A1E21A2EAA1BBB1BFD010DC0AA1FBB1F75
:10F7C000EE1FFF1FA217B307E407F50720F0A21BE7
:10F7D000B30BE40BF50B661F771F881F991F1A9454
:10F7E00069F760957095809590959B01AC01BD017E
:10F7F000CF010895692796276927782787277827D3
:10F800000895AA1BBB1B51E107C0AA1FBB1FA61767
:10F81000B70710F0A61BB70B881F991F5A95A9F7B9
:10F8200080959095BC01CD010895F999FECF92BDC8
:10F8300081BDF89A992780B50895262FF999FECFB2
:10F840001FBA92BD81BD20BD0FB6F894FA9AF99AFD
:0AF850000FBE01960895F894FFCF53
:040000033000E000E9
:00000001FF
