:020000023000CC
:10E000000D948AF10D94A6F10D94A6F10D94A6F14C
:10E010000D94A6F10D94A6F10D94A6F10D94A6F120
:10E020000D94A6F10D94A6F10D94A6F10D94A6F110
:10E030000D94A6F10D94A6F10D94A6F10D94A6F100
:10E040000D94A6F10D94A6F10D94A6F10D94A6F1F0
:10E050000D94A6F10D94A6F10D94A6F10D94A6F1E0
:10E060000D94A6F10D94A6F10D94A6F10D94A6F1D0
:10E070000D94A6F10D94A6F10D94A6F10D94A6F1C0
:10E080000D94A6F10D94A6F10D94A6F10D94A6F1B0
:10E090000D94A6F10D94A6F10D94A6F10D94A6F1A0
:10E0A0000D94A6F10D94A6F10D94A6F10D94A6F190
:10E0B0000D94A6F10D94A6F10D94A6F10D94A6F180
:10E0C0000D94A6F10D94A6F10D94A6F10D94A6F170
:10E0D0000D94A6F10D94A6F10D94A6F10D94A6F160
:10E0E0000D94A6F12A00593D506F727420626C693C
:10E0F0006E6B00563D73686F7720696E746572723F
:10E1000075707420566563746F727300523D447568
:10E110006D702052414D00513D51756974004C3D68
:10E120004C69737420492F4F20506F7274730048EC
:10E130003D48656C7000463D44756D7020464C410D
:10E14000534800453D44756D7020454550524F4D34
:10E1500000423D426C696E6B204C454400403D4599
:10E160004550524F4D2074657374003F3D435055E8
:10E1700020737461747300303D5A65726F2061645E
:10E18000647200504F5254004545206572722063FE
:10E190006E743D0052656164696E672045450057A5
:10E1A00072697474696E672045450020004D75736F
:10E1B000742062652061206C657474657200506F14
:10E1C0007274206E6F7420737570706F72746564F2
:10E1D000005768617420706F72743A006A6D702025
:10E1E00000726A6D702020006E6F20766563746F18
:10E1F00072005623202020414444522020206F707A
:10E2000020636F64652020202020696E737472750E
:10E210006374696F6E2061646472202020496E749B
:10E220006572727570740031342E322E3000322EC9
:10E23000312E30004F6374203133203230323500BC
:10E240004C6F636B20667573652020203D20004570
:10E2500078742066757365202020203D2000486971
:10E26000676820667573652020203D20004C6F771D
:10E270002066757365202020203D200043505520E6
:10E2800049442020202020203D20004743432056A1
:10E29000657273696F6E203D2000415652204C69B3
:10E2A0006243205665723D20005F5F4156525F41D8
:10E2B0005243485F5F3D20004350552054797065BC
:10E2C000202020203D2000436F6D70696C65642024
:10E2D0006F6E203D20004875683F00426F6F746C80
:10E2E0006F616465723E0041726475696E6F20658E
:10E2F00078706C6F7265722073746B353030563283
:10E30000206279204D4C530041546D656761323570
:10E310003630000011241FBECFEFD1E2DEBFCDBFEB
:10E3200001E00CBF22E0A0E0B2E001C01D92AE30DF
:10E33000B207E1F70F94DCF20D94C0FB01E20EBFCF
:10E340000FEF0DBF11241FBE0D94DCF20D9400F0F1
:10E350008093C6008091C00086FFFCCF8091C000F2
:10E3600080648093C00008958091C00087FFFCCF37
:10E370008091C60008959C0180E090E08217930789
:10E3800009F40895EFECF7E03197F1F700C00000D1
:10E390000196F4CFCF93DF93EC01C60FD11DCE01D0
:10E3A000A0E0B0E0ABBFFC018791811521F0219680
:10E3B0000F94A8F1F4CFDF91CF9108958DE00F94E1
:10E3C000A8F18AE00D94A8F1CF93C82F60E083E80C
:10E3D00091EE0F94CAF18C2F0F94A8F1CF910D9468
:10E3E000DEF10F94CAF10D94DEF1CF93DF93EC01CF
:10E3F0008881811521F021960F94A8F1F9CFDF9142
:10E40000CF910895CF93C82F982F92959F7080E356
:10E41000890F8A3310F087E3890F0F94A8F1CF702A
:10E4200080E38C0F8A3310F087E38C0FCF910D942B
:10E43000A8F12F923F924F925F926F927F928F92AC
:10E440009F92AF92BF92CF92DF92EF92FF920F9383
:10E450001F93CF93DF93CDB7DEB762970FB6F894D3
:10E46000DEBF0FBECDBF982E6A017B0180E1882EF2
:10E4700081E0C816D104E806F10418F08E2D0F943F
:10E4800002F28D2D0F9402F20C2D8C2D0F9402F2BE
:10E4900080E20F94A8F18DE20F94A8F180E20F942E
:10E4A000A8F11982FE0131965F01260137011F0193
:10E4B000005FF1E09F1609F443C082E0981609F46A
:10E4C00044C06BBEF2011791812F0F9402F280E2DB
:10E4D0000F94A8F180EE810F8F3508F01EE2F50150
:10E4E00011935F01FFEF4F1A5F0A6F0A7F0A041151
:10E4F000E0CF80E1C80ED11CE11CF11C198AC101DA
:10E500000F94F5F10F94DEF18A9409F0B1CF629681
:10E510000FB6F894DEBF0FBECDBFDF91CF911F9134
:10E520000F91FF90EF90DF90CF90BF90AF909F90B2
:10E530008F907F906F905F904F903F902F900895B5
:10E54000C2010F94AAFB182FBFCFF2011081BCCFDC
:10E550000F931F93CF93DF93EC018B0185369105C9
:10E560001CF4633071054CF0CE0164E670E00F944A
:10E5700059FB80E3860F0F94A8F1CB30D1051CF432
:10E58000023011056CF0CE0164E670E00F9459FB87
:10E590006AE070E00F9459FB80E3860F0F94A8F1B6
:10E5A000CE016AE070E00F9459FB805DDF91CF915E
:10E5B0001F910F910D94A8F1CDB7DEB7C553D1408F
:10E5C0000FB6F894DEBF0FBECDBF01E20EBF0FEF56
:10E5D0000DBF94B7F894A89514BE8091600088612F
:10E5E0008093600010926000789493FF05C0E091E2
:10E5F0000C02F0910D021995279A2F9A8091C00074
:10E6000082608093C00080E18093C40088E18093A1
:10E61000C100000000E010E0C12CD12C760137ECE5
:10E62000832E3BE1932EA12CB12C8091C00087FD5D
:10E6300039C0012BA1F027982F9884E690E00F9421
:10E64000BBF100008091C0008D7F8093C00081E10C
:10E6500080935700E895EE27FF270994FFCF25E028
:10E660002A95F1F700003FEFC31AD30AE30AF30A31
:10E6700081E041E2C4164EE4D406E104F10408F45A
:10E6800080E0082F10E0C701B601A50194010F94A6
:10E690006DFB672B682B692B09F0C7CF85B18058BC
:10E6A00085B9C3CF012B09F0C6CF8091C600C55DE7
:10E6B000DE4F19821882CB52D140212C312C20E020
:10E6C00030E0C95DDE4F19821882C752D140CD5D5E
:10E6D000DE4F188219821A821B82C352D140412C0C
:10E6E000512C3201CE5DDE4F1882C252D14000E083
:10E6F00010E017C00197A040B04069F4ABBFFC0127
:10E7000087919691019619F0EE27FF27099481E0F1
:10E7100092E1AAE7B0E04091C00047FFEBCF8091C3
:10E72000C600C55DDE4F68817981CB52D1406F5FF5
:10E730007F4FC55DDE4F79836883CB52D1408132F4
:10E7400009F041C56A30710508F074C77FEF271AD8
:10E75000370A93E02916310409F09DC725E0222EDF
:10E76000312C09E110E081E20F94A8F10150104032
:10E77000D1F70F94DEF1A1E02A1A310891F7109237
:10E7800008021092090210920A0210920B021092D3
:10E7900004021092050210920602109207021092D3
:10E7A000000210920102109202021092030260E035
:10E7B00087EE92EE0F94F1F12AC1153409F4DFC10E
:10E7C000163409F049C162E086E391EE0F94F1F14D
:10E7D0004091040250910502609106027091070277
:10E7E00080E00F9419F28091040290910502A091AB
:10E7F0000602B09107029F5FAF4FBF4F80930402A4
:10E8000090930502A0930602B093070200C112354F
:10E8100009F447C218F51C3409F41CC2113509F07B
:10E820001BC162E087E191EE0F94F1F111E02981C3
:10E83000243109F4ABC608F01CC5263009F472C6B1
:10E8400008F007C5223009F40FC5233009F411C6BA
:10E85000213009F4F7C580EC8A8307C5163509F421
:10E8600044C2193509F0F8C062E086EE90EE0F94CC
:10E87000F1F160E081ED91EE0F94CAF10F94B4F1E3
:10E88000182F1F75812F0F94A8F10F94DEF18FEBD5
:10E89000810F8A3108F093C4163409F42AC408F0B1
:10E8A000CBC3133409F4FDC308F0BBC3113409F022
:10E8B000E8C38FEF81B98091C00087FFDAC312B837
:10E8C00050C162E087E791EE0F94F1F110920402DB
:10E8D000109205021092060210920702109208028E
:10E8E0001092090210920A0210920B02109200027A
:10E8F00010920102109202021092030288C062E09C
:10E900008BE691EE0F94F1F160E087EE92EE0F94BA
:10E91000F1F160E087EC92EE0F94CAF160E084E3DD
:10E9200092EE0F94F1F160E088EB92EE0F94CAF151
:10E9300060E088E093EE0F94F1F160E089EA92EEF6
:10E940000F94CAF186E30F94A8F10F94DEF160E012
:10E950008BE892EE0F94CAF160E087E292EE0F949A
:10E96000F1F160E08AE992EE0F94CAF160E08EE284
:10E9700092EE0F94F1F160E08CE792EE0F94CAF101
:10E980008EE10F9402F288E90F9402F281E00F9475
:10E9900002F20F94DEF160E08DE692EE0F94CAF180
:10E9A00029E0E0E0F0E02093570084910F9402F218
:10E9B0000F94DEF160E08EE592EE0F94CAF129E04B
:10E9C000E3E0F0E02093570084910F9402F20F945B
:10E9D000DEF160E08FE492EE0F94CAF1E2E0F0E045
:10E9E00039E03093570084910F9402F20F94DEF1D6
:10E9F00060E080E492EE0F94CAF129E0E1E0F0E0FB
:10EA00002093570084910F9402F20F94DEF160E09E
:10EA10008BED92EE0F94CAF10F94B4F1182F80365B
:10EA200008F01F751032C0F0812F0F94A8F180E21A
:10EA30000F94A8F1183409F4CDC008F0E8CE1234D0
:10EA400009F484C008F0B9CE1F3309F458CF10344C
:10EA500039F0103309F435CF60E086ED92EEAACE9E
:10EA600062E08DE591EE0F94F1F160E08FE991EEB7
:10EA70000F94F1F10F94DEF100E010E0C80189512C
:10EA80009D41A0E0B0E0ABBFFC01F7903AE2F31685
:10EA900021F0011542E0140789F50F94DEF10F947F
:10EAA000DEF160E084E991EE0F94F1F10F94DEF174
:10EAB000E12CF12C00E010E0C80189519D41A0E05B
:10EAC000B0E0ABBFFC01D7906AE2D61621F0011589
:10EAD00072E0170729F50F94DEF10F94DEF160E084
:10EAE00088E891EE0F94CAF161E070E0C7010F94DD
:10EAF000A8F20F94DEF10F94DEF1F8CE6F2DC8016D
:10EB00000F94B2FBF11008C060E08BEA91EE0F9415
:10EB1000CAF10F5F1F4FB2CF8F2D0F94A8F1F9CF1D
:10EB2000C8010F94AAFBC82E81110DC060E08BEACA
:10EB300091EE0F94CAF1CD1419F05FEFE51AF50AC2
:10EB40000F5F1F4FB9CF0F94A8F1F5CF62E081E5B9
:10EB500091EE0F94F1F1279A2F9A8091C00087FFD0
:10EB600003C00F94B4F153CF2F9884E690E00F9434
:10EB7000BBF12F9A84E690E00F94BBF1EECF62E0F8
:10EB800083E491EE0F94F1F1409100025091010263
:10EB9000609102027091030281E00F9419F280915A
:10EBA000000290910102A0910202B09103029F5FC6
:10EBB000AF4FBF4F8115E0E19E07A105B10508F0F9
:10EBC00095CE8093000290930102A0930202B0932D
:10EBD00003021DCF62E08FE291EE0F94F1F160E04D
:10EBE00087E791EE0F94F1F160E08BE691EE0F94E0
:10EBF000F1F160E08DE591EE0F94F1F160E081E5D7
:10EC000091EE0F94F1F160E083E491EE0F94F1F155
:10EC100060E086E391EE0F94F1F160E08FE291EE17
:10EC20000F94F1F160E08EE191EE0F94F1F160E06C
:10EC300087E191EE0F94F1F160E08CE091EE0F949A
:10EC4000F1F160E083EF90EE0F94F1F160E086EE79
:10EC500090EEB0CD62E08EE191EE0F94F1F181E49F
:10EC60000F94E4F182E40F94E4F183E40F94E4F16F
:10EC700084E40F94E4F185E40F94E4F186E40F94C6
:10EC8000E4F187E40F94E4F188E40F94E4F18AE47A
:10EC90000F94E4F18BE40F94E4F18CE40F94E4F12D
:10ECA000B6CE62E08CE091EE0F94F1F14091080253
:10ECB0005091090260910A0270910B0282E00F9458
:10ECC00019F28091080290910902A0910A02B09174
:10ECD0000B029F5FAF4FBF4F8093080290930902D2
:10ECE000A0930A02B0930B0292CE62E083EF90EE03
:10ECF0000F94F1F160E088E093EE0F94F1F160E0A1
:10ED000082EF91EE0F94F1F1C75DDE4F1982188208
:10ED1000C952D140C25EDE4F188219821A821B820C
:10ED2000CE51D140C25EDE4F288139814A815B815C
:10ED3000CE51D1405695479537952795C35DDE4F07
:10ED4000288339834A835B83CD52D140C75DDE4F30
:10ED500048815981C952D1404F5F5F4FC75DDE4F37
:10ED600059834883C952D14062E070E0CA010F94D0
:10ED7000A8F280E20F94A8F18DE20F94A8F180E24E
:10ED80000F94A8F180E00F9402F2C35DDE4F8881FA
:10ED9000CD52D1400F9402F280E20F94A8F18DE39E
:10EDA0000F94A8F180E20F94A8F1C25EDE4F688153
:10EDB00079818A819B81CE51D1408BBFFB01179114
:10EDC000812E912CA12CB12CDC01CB010196A11D2F
:10EDD000B11DABBFFC018791282F30E040E050E02F
:10EDE000CF5CDE4F288339834A835B83C153D14094
:10EDF000C25EDE4F488159816A817B81CE51D1400C
:10EE00004E5F5F4F6F4F7F4F6BBFFA013791CB5C07
:10EE1000DE4F3883C553D140C25EDE4F48815981F1
:10EE20006A817B81CE51D1404D5F5F4F6F4F7F4FE5
:10EE30006BBFFA010791C25EDE4F488159816A813A
:10EE40007B81CE51D1404C5F5F4F6F4F7F4FC25E91
:10EE5000DE4F488359836A837B83CE51D140CF5C98
:10EE6000DE4F288139814A815B81C153D140CC2456
:10EE7000D22EE32EF42EC80CD91CEA1CFB1C0F94D6
:10EE800002F280E20F94A8F1812F0F9402F280E247
:10EE90000F94A8F1802F0F9402F280E20F94A8F152
:10EEA000CB5CDE4F8881C553D1400F9402F280E2E3
:10EEB0000F94A8F13FEFC316D306E104F10491F4D7
:10EEC00060E088EE91EE0F94CAF10F94DEF1C75D19
:10EED000DE4F68817981C952D1406933710509F0EB
:10EEE00021CF95CDD701C6018827907CAA27BB27C3
:10EEF0008115904CA105B10579F55FE3D522EE248B
:10EF0000FF24C35DDE4F88809980AA80BB80CD52EC
:10EF1000D1408C0C9D1CAE1CBF1C880C991CAA1CDB
:10EF2000BB1C60E081EE91EE0F94CAF18D2D0F9421
:10EF300002F28C2D0F9402F280E20F94A8F18EE37E
:10EF40000F94A8F180E00F9402F2892D0F9402F241
:10EF5000882D0F9402F2B9CF6EE0C622E894D0F863
:10EF6000EE24FF247CE0C71674E9D706E104F1041F
:10EF700009F0ABCF80FACC24DD247601E0F8A1E1E2
:10EF8000880C991CAA1CBB1CAA95D1F7882499242B
:10EF900080EEA82281E0B822C828D928EA28FB28D8
:10EFA00010E020E030E0322F212F102F0027CB5C23
:10EFB000DE4F9881C553D140090F111D211D311D10
:10EFC000CF5CDE4F488159816A817B81C153D1403A
:10EFD00040FB88279927DC01A5F9800F911FA21F0C
:10EFE000B31FC80ED91EEA1EFB1E46015701880C2E
:10EFF000991CAA1CBB1C60E08CED91EE0F94CAF129
:10F000008E2D0F9402F28D2D0F9402F28C2D0F9401
:10F0100002F280E20F94A8F18EE30F94A8F18A2DFA
:10F0200092CF143409F055C08FEF8AB98091C00097
:10F0300087FF47C01BB895CD1A3409F48EC050F431
:10F04000173409F466C0183409F473C060E08EEB1D
:10F0500091EEB0CB1B3409F494C01C34B9F78FEF98
:10F0600080930A018091C00087FF9FC010920B011E
:10F0700078CD82B1809582B988EC90E00F94BBF195
:10F080001ACC8FEF84B98091C00087FF02C015B8F9
:10F0900068CD85B1809585B988EC90E00F94BBF17F
:10F0A000F2CF8FEF87B98091C00087FF02C018B8F8
:10F0B00058CD88B1809588B988EC90E00F94BBF169
:10F0C000F2CF8BB180958BB988EC90E00F94BBF1B7
:10F0D000ADCF8FEF8DB98091C00087FF02C01EB801
:10F0E00040CD8EB180958EB988EC90E00F94BBF145
:10F0F000F2CF8FEF80BB8091C00087FF02C011BAB2
:10F1000030CD81B3809581BB88EC90E00F94BBF14A
:10F11000F2CF8FEF83BB8091C00087FF02C014BA8B
:10F1200020CD84B3809584BB88EC90E00F94BBF134
:10F13000F2CF8FEF809301018091C00087FF03C061
:10F14000109202010ECD8091020180958093020100
:10F1500088EC90E00F94BBF1EFCF8FEF8093040128
:10F160008091C00087FF03C010920501FACC809106
:10F17000050180958093050188EC90E00F94BBF128
:10F18000EFCF8FEF809307018091C00087FF03C00E
:10F1900010920801E6CC80910801809580930801C7
:10F1A00088EC90E00F94BBF1EFCF80910B0180953C
:10F1B00080930B0188EC90E00F94BBF153CF60E09B
:10F1C0008DEA91EEF7CA143039F108F042C21230DC
:10F1D000A1F01330D9F0113031F0212C312C8B31CA
:10F1E00069F110E094CA212C312C0827CE5DDE4F46
:10F1F0008883C252D14012E08ACA212C312C282F98
:10F2000030E0322F2227082713E081CA212C312C2D
:10F21000282B082714E07BCA8E3009F017C2082774
:10F22000212C312CC95DDE4F19821882C752D14082
:10F2300015E06DCA0813D5CF10E0F9CA0BE111E053
:10F2400066CAC95DDE4F39832883C752D14016E0B4
:10F250005ECA223109F458C12331C9F0203121F0AE
:10F26000213109F0F8CA11E01A8292E0E92EF12C5E
:10F27000A8C0293109F435C108F06FC0263109F45E
:10F2800085C1283109F418C1253109F0E4CAEA80A2
:10F29000FB80FE24EF24FE24233109F050C1CD5D14
:10F2A000DE4F88819981AA81BB81C352D1408115EB
:10F2B000904CA340B10528F583E0CD5DDE4F288159
:10F2C00039814A815B81C352D140F90140935B008F
:10F2D00080935700E89507B600FCFDCFCD5DDE4F6B
:10F2E000488159816A817B81C352D1405F5F6F4FF2
:10F2F0007F4FCD5DDE4F488359836A837B83C35242
:10F30000D140D301C201BE01655F7F4F41E0FB01E7
:10F31000208131816E5F7F4F0901FC01A0935B006A
:10F3200040935700E89511240296A11DB11D52E0AB
:10F33000E51AF10861F725E0F20160925B00209385
:10F340005700E89507B600FCFDCF21E12093570058
:10F35000E8951A822C013D0188CF2B3109F49DC01C
:10F360002D3161F02A3109F076CA1A8289E0E1E094
:10F37000F0E08093570084918B8399C09D819033F6
:10F3800049F48F81EEE1811599F0E1E0813081F45B
:10F39000E8E90EC089E0E0E0F0E0903531F0E0E02F
:10F3A000983531F489E0E3E0F0E080935700E49190
:10F3B000EE831A821B829C831D821F82E7E0EE2E61
:10F3C000F12C8BE10F94A8F1CE5DDE4F8881C25203
:10F3D000D1400F94A8F18F2D0F94A8F1CE5DDE4F90
:10F3E0000881C252D1400F258E2D0F94A8F10E2511
:10F3F0008EE00F94A8F185E10827CC24C394D12C8A
:10F40000CC0EDD1ECE0CDF1CAE014F5F5F4F7A01CC
:10F41000CE14DF0409F006C1802F0F94A8F185B146
:10F42000805885B9111107C9CE5DDE4FB881C2522F
:10F43000D140BF5FCE5DDE4FB883C252D14020E0E5
:10F4400030E065C91A8288E08B8381E48C8386E58D
:10F450008D8382E58E8389E48F8383E5888780E5C9
:10F4600089878FE58A8782E38B877BE0E72EF12C03
:10F47000A8CF8A81813959F0823959F0803959F001
:10F4800080E08B831A8253E0E52EF12C9ACF82E044
:10F49000F8CF8AE0F6CF8FE0F4CF8D81EEE18115D1
:10F4A00021F0E1E0813009F4E8E9EB831A821C8263
:10F4B00064E0E62EF12C85CF8B81803571F48C8150
:10F4C000883039F489E0E2E0F0E080935700E4917D
:10F4D000ECCF89E0E0E0F0E0F8CF89E0E3E0F0E0B5
:10F4E000F4CF8D81982F90959C739D83836C99E0C8
:10F4F000E1E0F0E0082E90935700E89507B600FC95
:10F50000FDCF1A821B82BFCF80EC8A8342E0E42EBB
:10F51000F12CCD5DDE4F188219821A821B82C352F4
:10F52000D1404FCF6A817B818C819D810F948FFB6D
:10F530002B013C01440C551C661C771C95CED30155
:10F54000C201B695A795979587954C015701A80ECE
:10F55000B91E6E016BE0C60ED11C8A149B0461F4C7
:10F56000C701A0E0B0E0880F991FAA1FBB1F840D40
:10F57000951DA61DB71DEDCED6016D916D01C4017F
:10F580000F94B2FBBFEF8B1A9B0AE7CF8A819B8156
:10F590009827892798277C01E3E0EE0EF11C1A8258
:10F5A0002431C9F4DE0111966BBEF2012791369128
:10F5B000FD0112962C93129713963C93139722E019
:10F5C000420E511C611C711C02971296009761F744
:10F5D00034961082F6CEFE0131969F01280F391F16
:10F5E000B301A20141BD852E962EA72EBB2482BC5D
:10F5F0004F5F5F4F6F4F7F4FF89AA0B5A283319650
:10F600002E173F0779F7FE013396E80FF91F019790
:10F61000A0E0B0E00196A11DB11D480E591E6A1E62
:10F620007B1ED7CFD701BD907D018B2D0F94A8F104
:10F630000B25EECE143051F060F4123009F4DDCD1C
:10F64000133009F4E3CD113009F4CDCD212C312C48
:10F65000C8CD212C312C153009F0ECCDC95DDE4F21
:10F6600048815981C752D1404F5F5F4FC95DDE4F1E
:10F67000E881F981C752D140EC0FFD1F8183082733
:10F680004217530709F4DDCDC95DDE4F5983488326
:10F69000C752D140CDCD143009F4A3CDE0F61230DD
:10F6A00009F4ADCD133009F4B3CD113009F49DCD7B
:10F6B00098CD97FB072E16F4009407D077FD09D05C
:10F6C0000F9496FB07FC05D03EF4909581959F4FD3
:10F6D0000895709561957F4F0895A1E21A2EAA1B97
:10F6E000BB1BFD010DC0AA1FBB1FEE1FFF1FA217F2
:10F6F000B307E407F50720F0A21BB30BE40BF50BEF
:10F70000661F771F881F991F1A9469F76095709577
:10F71000809590959B01AC01BD01CF0108956927AB
:10F72000962769277827872778270895AA1BBB1B68
:10F7300051E107C0AA1FBB1FA617B70710F0A61BF1
:10F74000B70B881F991F5A95A9F780959095BC0112
:10F75000CD010895F999FECF92BD81BDF89A992700
:10F7600080B50895262FF999FECF1FBA92BD81BDAD
:10F7700020BD0FB6F894FA9AF99A0FBE0196089533
:04F78000F894FFCF2B
:040000033000E000E9
:00000001FF
