:020000023000CC
:10F800000D9472FC0D948EFC0D948EFC0D948EFC68
:10F810000D948EFC0D948EFC0D948EFC0D948EFC3C
:10F820000D948EFC0D948EFC0D948EFC0D948EFC2C
:10F830000D948EFC0D948EFC0D948EFC0D948EFC1C
:10F840000D948EFC0D948EFC0D948EFC0D948EFC0C
:10F850000D948EFC0D948EFC0D948EFC0D948EFCFC
:10F860000D948EFC0D948EFC0D948EFC0D948EFCEC
:10F870000D948EFC0D948EFC0D948EFC0D948EFCDC
:10F880000D948EFC0D948EFC0D948EFC0D948EFCCC
:10F890000D948EFC0D948EFC0D948EFC0D948EFCBC
:10F8A0000D948EFC0D948EFC0D948EFC0D948EFCAC
:10F8B0000D948EFC0D948EFC0D948EFC0D948EFC9C
:10F8C0000D948EFC0D948EFC0D948EFC0D948EFC8C
:10F8D0000D948EFC0D948EFC0D948EFC0D948EFC7C
:10F8E0000D948EFC11241FBECFEFD1E2DEBFCDBF41
:10F8F00001E00CBF22E0A0E0B2E001C01D92A23006
:10F90000B207E1F70F94ABFC0D94D1FF01E20EBFFB
:10F910000FEF0DBF11241FBE0D94ABFC0D9400FC26
:10F920008093C6008091C00086FFFCCF8091C0000C
:10F9300080648093C00008959C0180E090E082176D
:10F94000930709F40895EFECF7E03197F1F700C061
:10F9500000000196F4CFCDB7DEB7C852D1400FB644
:10F96000F894DEBF0FBECDBF01E20EBF0FEF0DBF9B
:10F97000579A94B7F894A89514BE80916000886156
:10F980008093600010926000789493FF05C0E0912E
:10F990000002F091010219958091C000826080936D
:10F9A000C00080E18093C40088E18093C100000022
:10F9B00080E090E040E050E0BA012091C00027FDD7
:10F9C00025C0892B79F05F9A00008091C0008D7F5F
:10F9D0008093C00081E180935700E895EE27FF27D0
:10F9E0000994FFCF25E02A95F1F700004F5F5F4FA4
:10F9F0006F4F7F4F21E0413E37E6530735E3630702
:10FA0000710508F420E0822F90E0D7CF892BD9F63A
:10FA10005F988091C60020E030E0812C912CCE5D73
:10FA2000DE4F188219821A821B82C252D140412CA9
:10FA3000512C3201CA5DDE4F1882C652D140A12C32
:10FA4000AE014F5F5F4FC25EDE4F59834883CE5198
:10FA5000D140C25EDE4F5881CE51D140C95DDE4FEC
:10FA60005883C752D140C15EDE4F9881CF51D140FB
:10FA7000C85DDE4F9883C852D1408B3109F060C019
:10FA8000BB24B3945FC00197A040B04069F4ABBF02
:10FA9000FC0187919691019619F0EE27FF270994B2
:10FAA00081E092E1AAE7B0E04091C00047FFEBCFD0
:10FAB0008091C600B4E0BB16C9F1E5E0BE16A0F423
:10FAC000F2E0BF1621F143E0B41651F151E0B51256
:10FAD000D4CFA826CA5DDE4F8883C652D140140118
:10FAE000F2E0BF2E4101DCCF95E0B91227C014012E
:10FAF000AFEF2A1A3A0AFE013196E80DF91D80830C
:10FB0000A8262215330571F746E0B42EEBCF282F37
:10FB100030E0322F2227A8261401E3E0BE2EE2CFE8
:10FB2000282BA826140164E0B62EDCCF8E3041F4D9
:10FB3000A826212C312C55E0B52ED4CFA81621F0C3
:10FB40008A2DB12CA82EACCF2981233109F44AC1CA
:10FB5000C8F4263009F435C158F4223089F0233036
:10FB600009F4E7C0213009F4CDC080EC8A8336C1A6
:10FB7000213109F4F2C0223109F415C12031A9F76D
:10FB8000B12CEDC02A3109F4FDC008F03EC0263189
:10FB900021F048F5243109F025C18A819B819827FD
:10FBA000892798278C010D5F1F4F1A82243109F095
:10FBB0009EC1DE0111966BBEF20127913691FD01C7
:10FBC00012962C93129713963C93139722E0420EB1
:10FBD000511C611C711C02971296009761F73496B4
:10FBE0001082B12C3BC0283109F0BFCF8B8180350A
:10FBF00009F0D5C08C81883009F0CDC089E0E2E001
:10FC0000F0E080935700E491B6C02B3109F4ABC00B
:10FC10002D3109F0AACF9D81903349F48F81EEE117
:10FC2000811599F0E1E0813081F4E8E90EC089E0C6
:10FC3000E0E0F0E0903531F0E0E0983531F489E033
:10FC4000E3E0F0E080935700E491EE831A821B8298
:10FC50009C831D821F82B12C07E010E08BE10F9482
:10FC600090FCCA5DDE4F8881C652D1400F9490FC53
:10FC7000812F0F9490FC802F0F9490FCCA5DDE4F73
:10FC8000A880C652D140A126A0268EE00F9490FCF9
:10FC900035E1A326EE24E394F12CEC0EFD1EE00EDC
:10FCA000F11EC95DDE4F4881C752D140C05EDE4FB4
:10FCB0004883C052D140C85DDE4F5881C852D14000
:10FCC000CF5DDE4F5883C152D140C05EDE4F2881E8
:10FCD0003981C052D140E216F30609F02FC18A2DB6
:10FCE0000F9490FCCA5DDE4F3881C652D1403F5F11
:10FCF000CA5DDE4F3883C652D140B11064CE20E0D9
:10FD000030E0CECE1A8288E08B8381E48C8386E556
:10FD10008D8382E58E8389E48F8383E5888780E500
:10FD200089878FE58A8782E38B87B12C0BE010E00F
:10FD300095CF8A81813959F0823959F0803959F04B
:10FD400080E08B831A82B12C03E010E087CF82E041
:10FD5000F8CF8AE0F6CF8FE0F4CFBB24B3941A82B9
:10FD600002E010E07BCF8D81EEE1811521F0E1E032
:10FD7000813009F4E8E9EB831A821C82B12C04E09B
:10FD800010E06CCF1A8289E0E1E0F0E08093570048
:10FD900084918B83F2CF89E0E0E0F0E032CF89E01C
:10FDA000E3E0F0E02ECF80EC8A83B12C02E010E09B
:10FDB000CE5DDE4F188219821A821B82C252D14058
:10FDC0004DCF6A817B818C819D810F94BCFF2B017B
:10FDD0003C01440C551C661C771C1A82B12C02E0B5
:10FDE00010E03CCF0A811B81102701271027233107
:10FDF00009F056C0CE5DDE4F288139814A815B8192
:10FE0000C252D140211580EF380783E048075105E1
:10FE1000E8F483E0F90140935B0080935700E89594
:10FE200007B600FCFDCFCE5DDE4F288139814A81C7
:10FE30005B81C252D1403F5F4F4F5F4FCE5DDE4F7F
:10FE4000288339834A835B83C252D140B301A20124
:10FE5000CE010B96A1E0FC012081318102960901BF
:10FE6000FA0160935B00A0935700E89511244E5F60
:10FE70005F4F6F4F7F4F0250104069F785E0F201EE
:10FE800060925B0080935700E89507B600FCFDCFB9
:10FE900081E180935700E8951A822A013B019ECFA9
:10FEA00073016201F694E794D794C7945601C00E8B
:10FEB000D11E7E013BE0E30EF11CAC14BD0469F4DD
:10FEC00020E030E0000F111F221F331FB901A801ED
:10FED000440D551D661D771DDFCFD7016D917D0146
:10FEE000C5010F94C3FFBFEFAB1ABB0AE6CFFE01FB
:10FEF00031969F01280F391FB301A20141BDC52EC4
:10FF0000D62EE72EFF24C2BC4F5F5F4F6F4F7F4F4F
:10FF1000F89AA0B5A2833196E217F30779F7FE01AC
:10FF20003396E80FF91F0197A0E0B0E00196A11DFC
:10FF3000B11D480E591E6A1E7B1E52CEC05EDE4F9A
:10FF4000C880D980C052D140D601ED916D01C05E0C
:10FF5000DE4FE883C052D1408E2F0F9490FCC05EDC
:10FF6000DE4FF881C052D140AF26C05EDE4FD9824D
:10FF7000C882C052D140A9CE692796276927782721
:10FF8000872778270895262FF999FECF1FBA92BDAB
:10FF900081BD20BD0FB6F894FA9AF99A0FBE01966A
:06FFA0000895F894FFCF64
:040000033000F800D1
:00000001FF
